:020000040800F2
:100000000000022069250008B9250008B92500086C
:10001000B9250008B9250008B9250008000000002E
:10002000000000000000000000000000B9250008EA
:10003000B925000800000000B9250008C522000805
:10004000B9250008B9250008B9250008B925000818
:1000500000000000B9250008B9250008B9250008EE
:10006000B9250008B9250008B9250008B9250008F8
:10007000B9250008B9250008B9250008B9250008E8
:10008000B9250008B9250008B9250008B9250008D8
:10009000B9250008B9250008B9250008B9250008C8
:1000A000B9250008B9250008B9250008B9250008B8
:1000B000B9250008B9250008B9250008B9250008A8
:1000C000B9250008B9250008B9250008B925000898
:1000D000B9250008B9250008FD240008C52400083A
:1000E000B9250008B9250008B9250008B925000878
:1000F000B9250008B9250008B9250008B925000868
:10010000B9250008B9250008B9250008B925000857
:10011000B9250008B9250008B9250008B925000847
:10012000F90500082906000859060008B925000845
:10013000B9250008B9250008B9250008B925000827
:10014000B9250008B9250008B9250008B925000817
:10015000B9250008B9250008B9250008B925000807
:10016000B9250008B9250008B9250008B9250008F7
:10017000B9250008B9250008B9250008B9250008E7
:10018000B9250008B92500080000000000000000A3
:10019000000000000000000000000000000000005F
:0801A000B9250008B92500088B
:1001A80010B5054C237833B9044B13B10448AFF3A9
:1001B80000800123237010BD04000020000000000F
:1001C8001426000808B5034B1BB103490348AFF3D5
:1001D800008008BD00000000080000201426000868
:1001E80080B400AFBFF35F8F00BFBD465DF8047BEE
:1001F8007047000080B582B002AF00210F2001F0E7
:1002080045FF0021022001F041FF0321122001F0E7
:100218003DFF0021012001F039FF0021032001F0FA
:1002280035FF00230093002302220B21012000F058
:10023800F7FA07220B21012001F0EAFB03220B2128
:10024800012001F00BF9002300930023022208216A
:10025800032000F0E5FA07220821032001F0D8FB6B
:1002680003220821032001F0F9F80023009300235A
:1002780001220E21032000F0D3FA00220E210320D0
:1002880001F0ECF800230093002301220D21032044
:1002980000F0C6FA00220D21032001F0DFF8002348
:1002A8000093002301220C21032000F0B9FA002258
:1002B8000C21032001F0D2F801F092FE02F02EF892
:1002C800272001F09BFE02F0B9F8034802F0DEF89F
:1002D80000BFBD4680BD00BFCD03000880B582B019
:1002E80000AF204B1B78052B36D801A252F823F01B
:1002F8003503000811030008610300084D030008D6
:10030800530300085903000800F036F80346FB7150
:10031800FB79802B06D1134B03221A70124B012252
:100328001A701AE00F4B00221A7016E001F078FFDD
:100338000E490F4801F080FF00F014F90D4802F053
:1003480045F80AE000F08CF807E000F0DFF804E078
:10035800044B00221A7000E000BF00BF0837BD46FA
:1003680080BD00BF2000002021000020B503000848
:10037800809698002C26000880B582B000AF002334
:10038800FB71094B3B603B681B884AF65522934238
:1003980003D1022000F08EF901E05523FB71FB79AF
:1003A80018460837BD4680BD0080000880B500AFFC
:1003B80001F068FF024B04221A7000BF80BD00BF25
:1003C8002000002080B500AF1F4B1B6801331E4A78
:1003D80013601E4802F018F81C4B1B783A2B10D0FB
:1003E8001A4B1B78232B0CD0194B1B781A46174B2A
:1003F8001978184B9954164B1B780133DAB2144B01
:100408001A70124B1B78232B0BD1114B1B781A46F1
:10041800104B002199540E4B00221A700E4B0122EA
:100428001A700E4B1B781A460C21032001F068FA4B
:100438000A4B1B78002B0CBF01230023DBB21A46A2
:10044800064B1A7000BF80BD240000208E000020DB
:100458008C000020280000208D00002001000020D2
:1004680080B58CB002AF234B1B78012B3BD1002306
:100478007B62002387F82330002387F8223000238B
:1004880087F821303B4620220021184602F0B6F8B2
:100498007A6A07F1220007F1230107F1210301938A
:1004A8003B4600930346144801F0BBFB97F8223003
:1004B800002B03D1114801F089FF14E097F822308E
:1004C800012B10D10E4801F081FF0E4801F07EFF8C
:1004D8000B4801F07BFF094801F078FF01F0D2FEDC
:1004E800094B04221A70034B00221A7000BF2837E8
:1004F800BD4680BD8D00002028000020342600085D
:10050800382600083C2600082000002080B582B06C
:1005180000AF01F0A7FF1221032001F021FE002106
:10052800012001F01DFE0021032001F019FEFFF754
:1005380057FE0A4B0A4A1A60FFF752FE084B7B60C7
:100548007B681B683B603B68B3F1FF3F01D03B68A9
:10055800984700BF0837BD4680BD00BF08ED00E0E2
:100568000440000880B582B000AF0023FB80002360
:10057800BB801A4B1B78012B13D93B1D022219464D
:10058800174801F085FC3B791B021AB27B791BB234
:1005980013431BB2FB80114B00221A70104B002230
:1005A8001A80FB884AF6AA22934212D101F06AFE09
:1005B8000C4B1B78012B05D1012000F07BF8094B6F
:1005C80000221A70084801F001FF084B03221A7034
:1005D80000E000BF00BF0837BD4680BD8C0000208A
:1005E80028000020000000204026000820000020ED
:1005F80080B500AF074B1B78002B09D1064B1B6851
:10060800002B05D0044B1B689847044B00221A7036
:1006180000BF80BD8F0000209000002094000020C3
:1006280080B500AF074B1B78012B09D1064B1B681F
:10063800002B05D0044B1B689847044B00221A7006
:1006480000BF80BD8F000020900000209400002093
:1006580080B500AF074B1B78022B09D1064B1B68EE
:10066800002B05D0044B1B689847044B00221A70D6
:1006780000BF80BD8F000020900000209400002063
:1006880080B485B000AF78600023FB6003E000BF52
:10069800FB680133FB607B684FF4FA7202FB03F3DB
:1006A800FA689A42F3D300BF00BF1437BD465DF81D
:1006B800047B704780B483B000AF0346FB7100BF72
:1006C800234BDB681B0C03F00103012BF8D0204BF4
:1006D8001B69DB0F03F00103012B05D11C4B1D4ADD
:1006E8005A601B4B1C4A5A60194B1B69184A23F065
:1006F80078031361164B1B69FA79D2001146144A24
:100708000B431361124B1B69114A43F00203136137
:100718000F4B1B690E4A43F48033136100BF0C4B27
:10072800DB681B0C03F00103012BF8D0084BDB68D6
:10073800074A43F00103D360054B1B69044A23F0C1
:100748000203136100BF0C37BD465DF8047B704798
:10075800003C024023016745AB89EFCD80B487B0E8
:1007680000AFF860B9601346FB8000BF294BDB6817
:100778001B0C03F00103012BF8D0264B1B69DB0F80
:1007880003F00103012B05D1224B234A5A60214B68
:10079800224A5A601F4B1B691E4A23F44073136197
:1007A8001C4B1B691B4A43F480731361194B1B696B
:1007B800184A43F0010313610023FB821AE0FB8A05
:1007C8005B00BA681A44FB6812881A80FB68023317
:1007D800FB6000BF0F4BDB681B0C03F00103012B10
:1007E800F8D00C4BDB680B4A43F00103D360FB8A5B
:1007F8000133FB82FA8AFB889A42E0D3054B1B69D6
:10080800044A23F00103136100BF1C37BD465DF89D
:10081800047B7047003C024023016745AB89EFCD5C
:1008280090B482B000AF0446084611461A462346E3
:10083800FB710346BB710B467B7113463B71FB7919
:10084800042B00F20386BB790E2B00F2FF85FB799F
:10085800042B00F2FB8501A252F823F07908000866
:100868007B0B0008B50D0008CF0F0008091200081F
:100878007B79032B00F2E18501A252F823F000BF37
:10088800990800084D090008470A0008450B0008A8
:100898009D4B1B68BA795200032101FA02F2D24338
:1008A8001146994A0B401360974B974A1B6813608F
:1008B8003B79022B2ED0022B00F35881002B02D05B
:1008C800012B10D052E1904BDB68BA79032101FA71
:1008D80002F2D24311468C4A0B40D3608A4B8A4AB3
:1008E800DB68D3602DE0884BDB68BA79032101FA15
:1008F80002F2D2431146844A0B40D360824BDB6834
:10090800BA795200012101FA02F211467E4A0B43DC
:10091800D36016E07C4BDB68BA79032101FA02F256
:10092800D2431146784A0B40D360774BDB68BA79DB
:100938005200022101FA02F21146734A0B43D360B6
:1009480000BF13E1704B1B68BA795200032101FA0A
:1009580002F2D24311466C4A0B4013606A4B1B6883
:10096800BA795200012101FA02F21146664A0B4394
:1009780013603B79022B2DD0022B42DC002B02D0D6
:10098800012B10D03DE0604BDB68BA79032101FAF6
:1009980002F2D24311465C4A0B40D3605A4B5A4A82
:1009A800DB68D3602DE0584BDB68BA79032101FA84
:1009B80002F2D2431146544A0B40D360524BDB68D3
:1009C800BA795200012101FA02F211464E4A0B434C
:1009D800D36016E04C4BDB68BA79032101FA02F2C6
:1009E800D2431146484A0B40D360474BDB68BA797B
:1009F8005200022101FA02F21146434A0B43D36026
:100A080000BF3B7C002B02D0012B0CD0AFE03E4B4B
:100A18005B68BA79012101FA02F2D24311463A4AD7
:100A28000B4053600AE0384B5B68BA79012101FA40
:100A380002F21146344A0B43536000BF97E0324B31
:100A48001B68BA795200032101FA02F2D243114617
:100A58002D4A0B4013602C4B1B68BA7952000221B7
:100A680001FA02F21146284A0B4313603B79022B24
:100A78002DD0022B42DC002B02D0012B10D03DE000
:100A8800214BDB68BA79032101FA02F2D2431146FD
:100A98001D4A0B40D3601C4B1B4ADB68D3602DE01A
:100AA800194BDB68BA79032101FA02F2D2431146E5
:100AB800154A0B40D360144BDB68BA795200012108
:100AC80001FA02F21146104A0B43D36016E00E4BAE
:100AD800DB68BA79032101FA02F2D24311460A4AC5
:100AE8000B40D360084BDB68BA795200022101FA47
:100AF80002F21146044A0B43D36000BF3B7C002B33
:100B080004D0012B0ED032E000000240A54B5B68F8
:100B1800BA79012101FA02F2D2431146A14A0B40E7
:100B280053600AE09F4B5B68BA79012101FA02F22F
:100B380011469C4A0B43536000BF18E0994B1B6851
:100B4800BA795200032101FA02F2D2431146954ABA
:100B58000B401360934B1B68BA795200032101FACA
:100B680002F211468F4A0B43136000E000BF00F009
:100B780064BC7B79032B00F2628401A252F823F053
:100B8800990B00084D0C00087D0C0008770D000833
:100B9800854B1B68BA795200032101FA02F2D2434D
:100BA8001146814A0B4013607F4B7F4A1B681360D4
:100BB8003B79022B2ED0022B00F3F180002B02D0C0
:100BC800012B10D0EBE0784BDB68BA79032101FAEE
:100BD80002F2D2431146744A0B40D360724B724AF8
:100BE800DB68D3602DE0704BDB68BA79032101FA2A
:100BF80002F2D24311466C4A0B40D3606A4BDB6861
:100C0800BA795200012101FA02F21146664A0B43F1
:100C1800D36016E0644BDB68BA79032101FA02F26B
:100C2800D2431146604A0B40D3605F4BDB68BA7908
:100C38005200022101FA02F211465B4A0B43D360CB
:100C480000BFACE0584B1B68BA795200032101FA87
:100C580002F2D2431146544A0B401360524B1B68B0
:100C6800BA795200012101FA02F211464E4A0B43A9
:100C7800136095E04C4B1B68BA795200032101FAC6
:100C880002F2D2431146484A0B401360464B1B6898
:100C9800BA795200022101FA02F21146424A0B4384
:100CA80013603B79022B2DD0022B42DC002B02D0A3
:100CB800012B10D03DE03C4BDB68BA79032101FAE7
:100CC80002F2D2431146384A0B40D360364B364ABB
:100CD800DB68D3602DE0344BDB68BA79032101FA75
:100CE80002F2D2431146304A0B40D3602E4BDB68E8
:100CF800BA795200012101FA02F211462A4A0B433D
:100D0800D36016E0284BDB68BA79032101FA02F2B6
:100D1800D2431146244A0B40D360234BDB68BA798F
:100D28005200022101FA02F211461F4A0B43D36016
:100D380000BF3B7C002B02D0012B0CD030E01A4BBB
:100D48005B68BA79012101FA02F2D2431146164AC8
:100D58000B4053600AE0144B5B68BA79012101FA31
:100D680002F21146104A0B43536000BF18E00E4BC5
:100D78001B68BA795200032101FA02F2D2431146E4
:100D8800094A0B401360084B1B68BA7952000321CB
:100D980001FA02F21146044A0B43136000E000BF57
:100DA8004DE300BF00000240000402407B79032BA2
:100DB80000F2478301A252F823F000BFD50D0008C6
:100DC800890E0008B90E00089B0F00089B4B1B6892
:100DD800BA795200032101FA02F2D2431146974A26
:100DE8000B401360954B954A1B6813603B79022BA7
:100DF8002ED0022B00F3E580002B02D0012B10D05F
:100E0800DFE08E4BDB68BA79032101FA02F2D243A4
:100E180011468A4A0B40D360884B884ADB68D36006
:100E28002DE0864BDB68BA79032101FA02F2D2433E
:100E38001146824A0B40D360804BDB68BA79520076
:100E4800012101FA02F211467C4A0B43D36016E0F5
:100E58007A4BDB68BA79032101FA02F2D2431146D0
:100E6800764A0B40D360754BDB68BA795200022191
:100E780001FA02F21146714A0B43D36000BFA0E0A9
:100E88006E4B1B68BA795200032101FA02F2D24371
:100E980011466A4A0B401360684B1B68BA795200C6
:100EA800012101FA02F21146644A0B43136089E0FA
:100EB800624B1B68BA795200022101FA02F211460C
:100EC8005E4A0B4313603B79022B2DD0022B42DC88
:100ED800002B02D0012B10D03DE0584BDB68BA79CB
:100EE800032101FA02F2D2431146544A0B40D3605F
:100EF800524B524ADB68D3602DE0504BDB68BA791D
:100F0800032101FA02F2D24311464C4A0B40D36046
:100F18004A4BDB68BA795200012101FA02F2114604
:100F2800464A0B43D36016E0444BDB68BA79032189
:100F380001FA02F2D2431146404A0B40D3603F4BBC
:100F4800DB68BA795200022101FA02F211463B4AE3
:100F58000B43D36000BF3B7C002B02D0012B0CD08D
:100F680030E0364B5B68BA79012101FA02F2D243CC
:100F78001146324A0B4053600AE0304B5B68BA793D
:100F8800012101FA02F211462C4A0B43536000BFBB
:100F980018E02A4B1B68BA795200032101FA02F2C1
:100FA800D2431146254A0B401360244B1B68BA797B
:100FB8005200032101FA02F21146204A0B43136042
:100FC80000E000BF3DE27B79032B00F23C8201A2E6
:100FD80052F823F0ED0F0008AB100008DB100008F2
:100FE800D5110008164B1B68BA795200032101FA83
:100FF80002F2D2431146124A0B401360104B104ABA
:101008001B6813603B79022B33D0022B00F3F68068
:10101800002B02D0012B15D0F0E0094BDB68BA7920
:10102800032101FA02F2D2431146054A0B40D3606C
:10103800034B034ADB68D36032E000BF000802407C
:10104800000C0240A34BDB68BA79032101FA02F2D3
:10105800D24311469F4A0B40D3609E4BDB68BA7956
:101068005200012101FA02F211469A4A0B43D36059
:1010780016E0984BDB68BA79032101FA02F2D243F1
:101088001146944A0B40D360924BDB68BA79520000
:10109800022101FA02F211468E4A0B43D36000BFC7
:1010A800ACE08C4B1B68BA795200032101FA02F2BA
:1010B800D2431146874A0B401360864B1B68BA79A6
:1010C8005200012101FA02F21146824A0B431360D1
:1010D80095E0804B1B68BA795200032101FA02F2AD
:1010E800D24311467B4A0B4013607A4B1B68BA798E
:1010F8005200022101FA02F21146764A0B431360AC
:101108003B79022B2DD0022B42DC002B02D0012B85
:1011180010D03DE06F4BDB68BA79032101FA02F287
:10112800D24311466B4A0B40D3606A4B694ADB686D
:10113800D3602DE0674BDB68BA79032101FA02F22C
:10114800D2431146634A0B40D360624BDB68BA79DD
:101158005200012101FA02F211465E4A0B43D360A4
:1011680016E05C4BDB68BA79032101FA02F2D2433C
:101178001146584A0B40D360564BDB68BA79520087
:10118800022101FA02F21146524A0B43D36000BF12
:101198003B7C002B02D0012B0CD030E04D4B5B6820
:1011A800BA79012101FA02F2D2431146494A0B40A9
:1011B80053600AE0474B5B68BA79012101FA02F2F1
:1011C8001146444A0B43536000BF18E0414B1B686B
:1011D800BA795200032101FA02F2D24311463D4A7C
:1011E8000B4013603B4B1B68BA795200032101FA8C
:1011F80002F21146374A0B43136000E000BF22E1B8
:101208007B79032B00F2218101A252F823F000BF61
:1012180029120008E5120008151300080F14000829
:101228002D4B1B68BA795200032101FA02F2D2430E
:101238001146294A0B401360274B274A1B68136045
:101248003B79022B2ED0022B00F3F580002B02D025
:10125800012B10D0EFE0204BDB68BA79032101FAAB
:1012680002F2D24311461C4A0B40D3601A4B1A4A69
:10127800DB68D3602DE0184BDB68BA79032101FAEB
:1012880002F2D2431146144A0B40D360124BDB687A
:10129800BA795200012101FA02F211460E4A0B43B3
:1012A800D36016E00C4BDB68BA79032101FA02F22D
:1012B800D2431146084A0B40D360074BDB68BA7922
:1012C8005200022101FA02F21146034A0B43D3608D
:1012D80000BFB0E0000C0240001002405E4B1B68EB
:1012E800BA795200032101FA02F2D24311465A4A4E
:1012F8000B401360584B1B68BA795200012101FA60
:1013080002F21146544A0B43136095E0524B1B6896
:10131800BA795200032101FA02F2D24311464E4A29
:101328000B4013604C4B1B68BA795200022101FA3A
:1013380002F21146484A0B4313603B79022B2DD029
:10134800022B42DC002B02D0012B10D03DE0424B97
:10135800DB68BA79032101FA02F2D24311463E4A08
:101368000B40D3603C4B3C4ADB68D3602DE03A4BE2
:10137800DB68BA79032101FA02F2D2431146364AF0
:101388000B40D360344BDB68BA795200012101FA73
:1013980002F21146304A0B43D36016E02E4BDB684D
:1013A800BA79032101FA02F2D24311462A4A0B40C4
:1013B800D360294BDB68BA795200022101FA02F2A4
:1013C8001146254A0B43D36000BF3B7C002B02D05B
:1013D800012B0CD030E0204B5B68BA79012101FA6F
:1013E80002F2D24311461C4A0B4053600AE01A4BE2
:1013F8005B68BA79012101FA02F21146164A0B43D9
:10140800536000BF18E0144B1B68BA7952000321DF
:1014180001FA02F2D24311460F4A0B4013600E4BF9
:101428001B68BA795200032101FA02F211460A4AEE
:101438000B43136000E000BF07E000BF06E000BFF9
:1014480004E000BF02E000BF00E000BF00BF0837B3
:10145800BD4690BC704700BF0010024080B483B006
:1014680000AF0346FB710B46BB7113467B71FB79DA
:10147800042B00F22F82BB790F2B00F22B82FB7911
:10148800042B00F2328201A252F823F0A9140008BA
:101498007D15000851160008251700080B180008CC
:1014A8007B79032B00F2188201A252F823F000BFC7
:1014B800C9140008EB1400081B1500084B15000898
:1014C800A74B9B68BA795200032101FA02F2D24372
:1014D8001146A34A0B409360A14BA14A9B689360B5
:1014E80047E09F4B9B68BA795200032101FA02F248
:1014F800D24311469A4A0B409360994B9B68BA793C
:101508005200012101FA02F21146954A0B439360F9
:101518002FE0934B9B68BA795200032101FA02F23B
:10152800D24311468E4A0B4093608D4B9B68BA7923
:101538005200022101FA02F21146894A0B439360D4
:1015480017E0874B9B68BA795200032101FA02F22F
:10155800D2431146824A0B409360814B9B68BA790B
:101568005200032101FA02F211467D4A0B439360AF
:1015780000BFB1E17B79032B00F2B08101A252F8E0
:1015880023F000BF9D150008BF150008EF150008DF
:101598001F160008734B9B68BA795200032101FAA1
:1015A80002F2D24311466F4A0B4093606D4B6D4A6D
:1015B8009B68936047E06B4B9B68BA7952000321A4
:1015C80001FA02F2D2431146664A0B409360654B1A
:1015D8009B68BA795200012101FA02F21146614A68
:1015E8000B4393602FE05F4B9B68BA79520003214D
:1015F80001FA02F2D24311465A4A0B409360594B02
:101608009B68BA795200022101FA02F21146554A42
:101618000B43936017E0534B9B68BA795200032140
:1016280001FA02F2D24311464E4A0B4093604D4BE9
:101638009B68BA795200032101FA02F21146494A1D
:101648000B43936000BF49E17B79032B00F248818B
:1016580001A252F823F000BF711600089316000883
:10166800C3160008F31600083F4B9B68BA7952006E
:10167800032101FA02F2D24311463B4A0B40936020
:10168800394B394A9B68936047E0374B9B68BA7976
:101698005200032101FA02F2D2431146324A0B40AA
:1016A8009360314B9B68BA795200012101FA02F22A
:1016B80011462D4A0B4393602FE02B4B9B68BA7958
:1016C8005200032101FA02F2D2431146264A0B4086
:1016D8009360254B9B68BA795200022101FA02F205
:1016E8001146214A0B43936017E01F4B9B68BA7958
:1016F8005200032101FA02F2D24311461A4A0B4062
:101708009360194B9B68BA795200032101FA02F2DF
:101718001146154A0B43936000BFE1E07B79032B28
:1017280000F2E08001A252F823F000BF451700083C
:1017380079170008A9170008D91700080B4B9B68F0
:10174800BA795200032101FA02F2D2431146074A3C
:101758000B409360054B054A9B68936050E000BFBF
:10176800000002400004024000080240000C024051
:10177800614B9B68BA795200032101FA02F2D24305
:1017880011465D4A0B4093605B4B9B68BA795200E7
:10179800012101FA02F21146574A0B4393602FE0E8
:1017A800554B9B68BA795200032101FA02F2D243E1
:1017B8001146514A0B4093604F4B9B68BA795200CF
:1017C800022101FA02F211464B4A0B43936017E0DB
:1017D800494B9B68BA795200032101FA02F2D243BD
:1017E8001146454A0B409360434B9B68BA795200B7
:1017F800032101FA02F211463F4A0B43936000BFEE
:1018080070E07B79032B6FD801A252F823F000BF58
:10181800291800084B1800087B180008AB180008A6
:10182800364B9B68BA795200032101FA02F2D2437F
:101838001146324A0B409360304B304A9B689360A4
:1018480047E02E4B9B68BA795200032101FA02F255
:10185800D2431146294A0B409360284B9B68BA79BA
:101868005200012101FA02F21146244A0B43936007
:101878002FE0224B9B68BA795200032101FA02F249
:10188800D24311461D4A0B4093601C4B9B68BA79A2
:101898005200022101FA02F21146184A0B439360E2
:1018A80017E0164B9B68BA795200032101FA02F23D
:1018B800D2431146114A0B409360104B9B68BA798A
:1018C8005200032101FA02F211460C4A0B439360BD
:1018D80000BF09E000BF08E000BF06E000BF04E069
:1018E80000BF02E000BF00E000BF00BF0C37BD46EC
:1018F8005DF8047B704700BF000C024000100240F6
:1019080080B483B000AF0346FB710B46BB7113462E
:101918007B71FB79042B6AD8BB790F2B67D87B794D
:10192800012B2DD1FB79042B62D801A252F823F0A8
:101938004D1900085919000865190008711900089F
:101948007D190008BB7901229A402C4B9A614FE01F
:10195800BB7901229A402A4B9A6149E0BB7901225E
:101968009A40284B9A6143E0BB7901229A40264B62
:101978009A613DE0BB7901229A40244B9A6137E095
:101988007B79002B33D1FB79042B31D801A252F893
:1019980023F000BFB1190008BF190008CD190008CD
:1019A800DB190008E9190008BB79103301229A40B5
:1019B800124B9A611CE0BB79103301229A40104BFC
:1019C8009A6115E0BB79103301229A400D4B9A6158
:1019D8000EE0BB79103301229A400B4B9A6107E065
:1019E800BB79103301229A40084B9A6100E000BF8E
:1019F80000BF0C37BD465DF8047B7047000002400D
:101A08000004024000080240000C0240001002409E
:101A180080B483B000AF0346FB710B46BB7113461D
:101A28007B71BB79072B4BD8FB79042B4ED801A2CD
:101A380052F823F0511A0008691A0008811A0008A0
:101A4800991A0008B11A0008494B1B6A7979BA79C2
:101A5800920001FA02F21146454A0B43136235E03F
:101A6800444B1B6A7979BA79920001FA02F211465D
:101A7800404A0B43136229E03F4B1B6A7979BA79D4
:101A8800920001FA02F211463B4A0B4313621DE031
:101A98003A4B1B6A7979BA79920001FA02F2114637
:101AA800364A0B43136211E0354B1B6A7979BA79D0
:101AB800920001FA02F21146314A0B43136205E023
:101AC800BB790F2B02D8BB79083BBB71FB79042B80
:101AD80048D801A252F823F0F51A00080D1B000897
:101AE800251B00083D1B0008551B0008204B5B6A9E
:101AF8007979BA79920001FA02F211461C4A0B432D
:101B080053622FE01B4B5B6A7979BA79920001FA2C
:101B180002F21146174A0B43536223E0164B5B6AE5
:101B28007979BA79920001FA02F21146124A0B4306
:101B3800536217E0114B5B6A7979BA79920001FA1E
:101B480002F211460D4A0B4353620BE00C4B5B6AE1
:101B58007979BA79920001FA02F21146084A0B43E0
:101B6800536200BF00BF0C37BD465DF8047B704769
:101B7800000002400004024000080240000C02403D
:101B88000010024080B485B000AF78600B46FB704F
:101B98000023FB7319E0FB7B5B007A6813441B8806
:101BA8001B0A9BB21AB2FB7B5B0079680B441B884B
:101BB8001B021BB2134319B2FB7B5B007A68134408
:101BC8008AB21A80FB7B0133FB73FA7BFB789A425B
:101BD800E1D300BF00BF1437BD465DF8047B7047F2
:101BE80080B485B000AF0346FB710023FB73FB791B
:101BF8002F2B06D9FB79392B03D8FB79303BFB73A4
:101C080008E0FB79402B05D9FB79462B02D8FB79F4
:101C1800373BFB73FB7B18461437BD465DF8047BE6
:101C2800704780B5A2B000AFF860B9607A603B60D9
:101C380007F1140364220021184600F0DFFC00239A
:101C480087F887300023C7F88030FB681B78184670
:101C5800FFF7C6FF034687F87F30FB6801331B7820
:101C68001846FFF7BDFF034687F87E3097F87F30A8
:101C78001B015AB297F97E3013435BB287F87D3067
:101C8800BB6897F87D201A70FB6802331B781846EA
:101C9800FFF7A6FF034687F87C30FB6803331B7801
:101CA8001846FFF79DFF034687F87B30FB6804332F
:101CB8001B781846FFF794FF034687F87A30FB68CD
:101CC80005331B781846FFF78BFF034687F87930F2
:101CD80097F87C301B0343F0006297F87B301B02B7
:101CE8001A4397F87A301B011A4397F8793013434F
:101CF800C7F880307B68D7F880201A60FB68063305
:101D08001B781846FFF76CFF034687F87C30FB68A2
:101D180007331B781846FFF763FF034687F87B30C5
:101D280097F87C301B015AB297F97B3013435BB2AA
:101D3800DAB23B681A70002387F8873063E097F8B7
:101D480087309B000833FA6813441B781846FFF75E
:101D580047FF034687F87C3097F887309B000933A4
:101D6800FA6813441B781846FFF73AFF034687F8CA
:101D78007B3097F887309B000A33FA6813441B7846
:101D88001846FFF72DFF034687F87A3097F8873013
:101D98009B000B33FA6813441B781846FFF720FFA3
:101DA800034687F8793097F87C301B031AB297F806
:101DB8007B301B021BB213431AB297F87A301B010F
:101DC8001BB213431AB297F879301BB213431AB2F5
:101DD80097F8873092B25B0088333B4423F8742C21
:101DE80097F8873097F887205200D7F890100A4460
:101DF8005B0088333B4433F8743C138097F8873092
:101E0800013387F8873097F87D305B08DBB297F8A5
:101E180087209A4293D397F87D305B08DAB207F1AE
:101E2800140311461846FFF7ADFE97F88730FA6895
:101E380013441B781846FFF7D3FE034687F87C3017
:101E480097F887300133FA6813441B781846FFF770
:101E5800C7FE034687F87B3097F87C301B015AB2DF
:101E680097F97B3013435BB2DAB2D7F894301A7023
:101E780097F87D305B08DBB29AB207F11403194674
:101E8800D7F88000FEF76AFC00BF8837BD4680BDE2
:101E980080B487B000AFF860B9601346FB710023C7
:101EA800BB820023FB750023FB7577E00023BB751D
:101EB8004FE0FB7D5A00BB7D13441A46FB68134470
:101EC8001B782F2B1CD9FB7D5A00BB7D13441A4667
:101ED800FB6813441B78392B12D8FB7D5A00BB7D55
:101EE80013441A46FB6813441A78FB7D5900BB7DDE
:101EF8000B441946FB680B44303AD2B21A7025E0FD
:101F0800FB7D5A00BB7D13441A46FB6813441B78BB
:101F1800402B1BD9FB7D5A00BB7D13441A46FB6836
:101F280013441B78462B11D8FB7D5A00BB7D134404
:101F38001A46FB6813441A78FB7D5900BB7D0B4495
:101F48001946FB680B44373AD2B21A70BB7D01338D
:101F5800BB75BB7D012BACD90023BB82FB7D5B002D
:101F68001A46FB6813441B781B011BB2DBB21AB27A
:101F7800FB7D5B000133F9680B441B781BB203F04F
:101F88000F031BB213431BB2BB82FB7DBA68134419
:101F9800BA8AD2B21A70FB7D0133FB75FA7DFB79E0
:101FA8009A4211D2FB7D5B001A46FB6813441B78EA
:101FB800002B7FF47BAF07E0FB7DBA681344002257
:101FC8001A70FB7D0133FB75FA7DFB799A42F3D3D6
:101FD80000BF00BF1C37BD465DF8047B704700009A
:101FE80080B400AF034B044A1A6000BFBD465DF8D9
:101FF800047B70470CED00E00005FA0580B483B05F
:1020080000AF0346FB71FB791F2B05D8FB79012232
:102018009A400A4B1A600AE0FB793F2B07D8FB79F4
:10202800203BFB71FB7901229A40054B1A6000BFE7
:102038000C37BD465DF8047B704700BF00E100E047
:1020480004E100E080B400AF0F4B9B680E4A23F018
:10205800020393600C4B9B680B4A23F001039360C7
:10206800094B1B68084A43F00103136000BF064B85
:102078001B6803F00203002BF9D000BF00BFBD4668
:102088005DF8047B704700BF0038024080B483B01D
:1020980000AF78600B46FB707B681F2B57D82F4B1F
:1020A8009B682E4A43F4004393602C4B9B682B4A51
:1020B80043F480539360294B284A9B689360FB78CC
:1020C800042B45D801A252F823F000BFE9200008EC
:1020D800FF200008152100082B21000841210008D5
:1020E8001E4B1B6B01217A6801FA02F211461B4A4A
:1020F8000B4313632CE0194B5B6B01217A6801FADF
:1021080002F21146154A0B43536321E0134B9B6BB4
:1021180001217A6801FA02F21146104A0B439363CF
:1021280016E00E4B1B6C01217A6801FA02F2114687
:102138000A4A0B4313640BE0084B5B6C01217A6875
:1021480001FA02F21146054A0B43536400E000BF4E
:1021580000BF0C37BD465DF8047B7047003802406D
:1021680080B483B000AF78600B46FB707B681F2B90
:102178004CD8FB78042B4AD801A252F823F000BFB0
:102188009D210008B5210008CD210008E52100089F
:10219800FD210008214B1B6B01217A6801FA02F22C
:1021A800D24311461D4A0B40136330E01B4B5B6B57
:1021B80001217A6801FA02F2D2431146174A0B400C
:1021C800536324E0154B9B6B01217A6801FA02F2F4
:1021D800D2431146114A0B40936318E00F4B1B6C16
:1021E80001217A6801FA02F2D24311460B4A0B40E8
:1021F80013640CE0094B5B6C01217A6801FA02F266
:10220800D2431146054A0B40536400E000BF00BFAB
:102218000C37BD465DF8047B704700BF00380240AC
:1022280080B400AF034B00221A6000BFBD465DF8C2
:10223800047B704710E000E080B483B000AF7860A2
:1022480039600D4A7B6853600B4B1B680A4A43F0A0
:1022580001031360094A3B681360074B1B68064A71
:1022680043F002031360064B01221A7000BF0C37BB
:10227800BD465DF8047B704710E000E09800002040
:102288009C00002080B400AF0B4B1B680A4A23F067
:1022980002031360084B1B68074A23F0010313600D
:1022A800054B00225A60044B00229A6000BFBD46CD
:1022B8005DF8047B704700BF10E000E080B582B095
:1022C80000AF0023FB71124B1B78002B11D1114B6F
:1022D8001B68104A23F0020313600E4B1B680D4A5B
:1022E80023F0010313600B4B00225A60094B0022B4
:1022F8009A60094B1B689847064B1B681B0CDBB29E
:1023080003F00103FB7100BF0837BD4680BD00BF65
:102318009C00002010E000E09800002080B400AF8E
:10232800184BDB68174A43F40053D360154B45221A
:102338009A60144BDB68134A23F48063D360114B13
:10234800DB68104A23F48053D3600E4B1B690D4A97
:1023580023F4805313610B4B1B690A4A23F400537F
:102368001361084BDB68074A43F00403D360054B4D
:10237800DB68044A43F00803D36000BFBD465DF83C
:10238800047B70470048004080B485B000AF034626
:10239800FB710023FB7300BF0B4B1B68DB0903F0C9
:1023A8000103002BF8D0084AFB795360064B1B68E1
:1023B800054A23F080031360FB7B18461437BD469B
:1023C8005DF8047B704700BF0048004080B584B0CA
:1023D80000AF78600023BB730023FB7309E0FB7B2D
:1023E8007A6813441B781846FFF7CEFFFB7B01334E
:1023F800FB73FB7B7A6813441B78002BEFD1BB7B04
:1024080018461037BD4680BD80B485B000AF7860EF
:102418000023FB73084B5B68DAB27B681A70064BC3
:102428001B68054A23F020031360FB7B184614370A
:10243800BD465DF8047B70470048004080B483B017
:1024480000AF0023FB71064BDB68054A43F020030D
:10245800D360FB7918460C37BD465DF8047B70479E
:102468000048004080B483B000AF0023FB71064BE6
:10247800DB68054A23F02003D360FB7918460C3744
:10248800BD465DF8047B70470048004080B485B0C5
:1024980000AF78600023FB737B68002B03D0064AEB
:1024A8007B68136001E00323FB73FB7B184614373A
:1024B800BD465DF8047B7047A000002080B500AFE2
:1024C8000A4B1B685B0903F00103002B0CD0084B77
:1024D8001B68002B02D0064B1B689847034B1B68F0
:1024E800024A23F02003136000BF80BD004800406B
:1024F800A000002080B500AF0A4B1B685B0903F001
:102508000103002B0CD0084B1B68002B02D0064B94
:102518001B689847034B1B68024A23F0200313608B
:1025280000BF80BD00440040A400002080B500AF7B
:10253800FFF788FDFDF75EFE01220D210320FFF75E
:10254800DFF96420FEF79CF800220D210320FFF735
:10255800D7F96420FEF794F8FDF7C0FEECE7000019
:102568000D488546AFF300800C480D490D4A0023FD
:1025780002E0D458C4500433C4188C42F9D30A4A30
:102588000A4C002301E013600432A242FBD300F09E
:1025980011F8FFF7CBFFFEE7000002200000002043
:1025A800040000205426000804000020A800002091
:1025B800FEE7000070B50D4D0D4C641BA4100026FD
:1025C800A64209D10B4D0C4C00F020F8641BA41056
:1025D8000026A64205D170BD55F8043B9847013640
:1025E800EEE755F8043B98470136F2E74C26000819
:1025F8004C2600084C2600085026000802440346D2
:10260800934200D1704703F8011BF9E7F8B500BF02
:10261800F8BC08BC9E467047F8B500BFF8BC08BCBB
:042628009E46704713
:10262C0077616974000000004F4B00000A00000045
:10263C00454E440041434B464C415348000000007A
:04264C00CD010008B4
:04265000A9010008D4
:042654000101000080
:040000050800256961
:00000001FF
